{
  "_format": "hh-sol-artifact-1",
  "contractName": "Domains",
  "sourceName": "contracts/Domains.sol",
  "abi": [
    {
      "inputs": [
        {
          "internalType": "string",
          "name": "_tld",
          "type": "string"
        }
      ],
      "stateMutability": "payable",
      "type": "constructor"
    },
    {
      "inputs": [],
      "name": "AlreadyRegistered",
      "type": "error"
    },
    {
      "inputs": [
        {
          "internalType": "string",
          "name": "name",
          "type": "string"
        }
      ],
      "name": "InvalidName",
      "type": "error"
    },
    {
      "inputs": [],
      "name": "Unauthorized",
      "type": "error"
    },
    {
      "anonymous": false,
      "inputs": [
        {
          "indexed": true,
          "internalType": "address",
          "name": "owner",
          "type": "address"
        },
        {
          "indexed": true,
          "internalType": "address",
          "name": "approved",
          "type": "address"
        },
        {
          "indexed": true,
          "internalType": "uint256",
          "name": "tokenId",
          "type": "uint256"
        }
      ],
      "name": "Approval",
      "type": "event"
    },
    {
      "anonymous": false,
      "inputs": [
        {
          "indexed": true,
          "internalType": "address",
          "name": "owner",
          "type": "address"
        },
        {
          "indexed": true,
          "internalType": "address",
          "name": "operator",
          "type": "address"
        },
        {
          "indexed": false,
          "internalType": "bool",
          "name": "approved",
          "type": "bool"
        }
      ],
      "name": "ApprovalForAll",
      "type": "event"
    },
    {
      "anonymous": false,
      "inputs": [
        {
          "indexed": true,
          "internalType": "address",
          "name": "from",
          "type": "address"
        },
        {
          "indexed": true,
          "internalType": "address",
          "name": "to",
          "type": "address"
        },
        {
          "indexed": true,
          "internalType": "uint256",
          "name": "tokenId",
          "type": "uint256"
        }
      ],
      "name": "Transfer",
      "type": "event"
    },
    {
      "inputs": [
        {
          "internalType": "address",
          "name": "to",
          "type": "address"
        },
        {
          "internalType": "uint256",
          "name": "tokenId",
          "type": "uint256"
        }
      ],
      "name": "approve",
      "outputs": [],
      "stateMutability": "nonpayable",
      "type": "function"
    },
    {
      "inputs": [
        {
          "internalType": "address",
          "name": "owner",
          "type": "address"
        }
      ],
      "name": "balanceOf",
      "outputs": [
        {
          "internalType": "uint256",
          "name": "",
          "type": "uint256"
        }
      ],
      "stateMutability": "view",
      "type": "function"
    },
    {
      "inputs": [
        {
          "internalType": "string",
          "name": "",
          "type": "string"
        }
      ],
      "name": "domains",
      "outputs": [
        {
          "internalType": "address",
          "name": "",
          "type": "address"
        }
      ],
      "stateMutability": "view",
      "type": "function"
    },
    {
      "inputs": [
        {
          "internalType": "string",
          "name": "name",
          "type": "string"
        }
      ],
      "name": "getAddress",
      "outputs": [
        {
          "internalType": "address",
          "name": "",
          "type": "address"
        }
      ],
      "stateMutability": "view",
      "type": "function"
    },
    {
      "inputs": [],
      "name": "getAllNames",
      "outputs": [
        {
          "internalType": "string[]",
          "name": "",
          "type": "string[]"
        }
      ],
      "stateMutability": "view",
      "type": "function"
    },
    {
      "inputs": [
        {
          "internalType": "uint256",
          "name": "tokenId",
          "type": "uint256"
        }
      ],
      "name": "getApproved",
      "outputs": [
        {
          "internalType": "address",
          "name": "",
          "type": "address"
        }
      ],
      "stateMutability": "view",
      "type": "function"
    },
    {
      "inputs": [
        {
          "internalType": "string",
          "name": "name",
          "type": "string"
        }
      ],
      "name": "getRecord",
      "outputs": [
        {
          "internalType": "string",
          "name": "",
          "type": "string"
        }
      ],
      "stateMutability": "view",
      "type": "function"
    },
    {
      "inputs": [
        {
          "internalType": "address",
          "name": "owner",
          "type": "address"
        },
        {
          "internalType": "address",
          "name": "operator",
          "type": "address"
        }
      ],
      "name": "isApprovedForAll",
      "outputs": [
        {
          "internalType": "bool",
          "name": "",
          "type": "bool"
        }
      ],
      "stateMutability": "view",
      "type": "function"
    },
    {
      "inputs": [],
      "name": "isOwner",
      "outputs": [
        {
          "internalType": "bool",
          "name": "",
          "type": "bool"
        }
      ],
      "stateMutability": "view",
      "type": "function"
    },
    {
      "inputs": [],
      "name": "name",
      "outputs": [
        {
          "internalType": "string",
          "name": "",
          "type": "string"
        }
      ],
      "stateMutability": "view",
      "type": "function"
    },
    {
      "inputs": [
        {
          "internalType": "uint256",
          "name": "",
          "type": "uint256"
        }
      ],
      "name": "names",
      "outputs": [
        {
          "internalType": "string",
          "name": "",
          "type": "string"
        }
      ],
      "stateMutability": "view",
      "type": "function"
    },
    {
      "inputs": [],
      "name": "owner",
      "outputs": [
        {
          "internalType": "address payable",
          "name": "",
          "type": "address"
        }
      ],
      "stateMutability": "view",
      "type": "function"
    },
    {
      "inputs": [
        {
          "internalType": "uint256",
          "name": "tokenId",
          "type": "uint256"
        }
      ],
      "name": "ownerOf",
      "outputs": [
        {
          "internalType": "address",
          "name": "",
          "type": "address"
        }
      ],
      "stateMutability": "view",
      "type": "function"
    },
    {
      "inputs": [
        {
          "internalType": "string",
          "name": "name",
          "type": "string"
        }
      ],
      "name": "price",
      "outputs": [
        {
          "internalType": "uint256",
          "name": "",
          "type": "uint256"
        }
      ],
      "stateMutability": "pure",
      "type": "function"
    },
    {
      "inputs": [
        {
          "internalType": "string",
          "name": "",
          "type": "string"
        }
      ],
      "name": "records",
      "outputs": [
        {
          "internalType": "string",
          "name": "",
          "type": "string"
        }
      ],
      "stateMutability": "view",
      "type": "function"
    },
    {
      "inputs": [
        {
          "internalType": "string",
          "name": "name",
          "type": "string"
        },
        {
          "internalType": "string",
          "name": "cid",
          "type": "string"
        }
      ],
      "name": "register",
      "outputs": [],
      "stateMutability": "payable",
      "type": "function"
    },
    {
      "inputs": [
        {
          "internalType": "address",
          "name": "from",
          "type": "address"
        },
        {
          "internalType": "address",
          "name": "to",
          "type": "address"
        },
        {
          "internalType": "uint256",
          "name": "tokenId",
          "type": "uint256"
        }
      ],
      "name": "safeTransferFrom",
      "outputs": [],
      "stateMutability": "nonpayable",
      "type": "function"
    },
    {
      "inputs": [
        {
          "internalType": "address",
          "name": "from",
          "type": "address"
        },
        {
          "internalType": "address",
          "name": "to",
          "type": "address"
        },
        {
          "internalType": "uint256",
          "name": "tokenId",
          "type": "uint256"
        },
        {
          "internalType": "bytes",
          "name": "_data",
          "type": "bytes"
        }
      ],
      "name": "safeTransferFrom",
      "outputs": [],
      "stateMutability": "nonpayable",
      "type": "function"
    },
    {
      "inputs": [
        {
          "internalType": "address",
          "name": "operator",
          "type": "address"
        },
        {
          "internalType": "bool",
          "name": "approved",
          "type": "bool"
        }
      ],
      "name": "setApprovalForAll",
      "outputs": [],
      "stateMutability": "nonpayable",
      "type": "function"
    },
    {
      "inputs": [
        {
          "internalType": "string",
          "name": "name",
          "type": "string"
        },
        {
          "internalType": "string",
          "name": "record",
          "type": "string"
        }
      ],
      "name": "setRecord",
      "outputs": [],
      "stateMutability": "nonpayable",
      "type": "function"
    },
    {
      "inputs": [
        {
          "internalType": "bytes4",
          "name": "interfaceId",
          "type": "bytes4"
        }
      ],
      "name": "supportsInterface",
      "outputs": [
        {
          "internalType": "bool",
          "name": "",
          "type": "bool"
        }
      ],
      "stateMutability": "view",
      "type": "function"
    },
    {
      "inputs": [],
      "name": "symbol",
      "outputs": [
        {
          "internalType": "string",
          "name": "",
          "type": "string"
        }
      ],
      "stateMutability": "view",
      "type": "function"
    },
    {
      "inputs": [],
      "name": "tld",
      "outputs": [
        {
          "internalType": "string",
          "name": "",
          "type": "string"
        }
      ],
      "stateMutability": "view",
      "type": "function"
    },
    {
      "inputs": [
        {
          "internalType": "uint256",
          "name": "tokenId",
          "type": "uint256"
        }
      ],
      "name": "tokenURI",
      "outputs": [
        {
          "internalType": "string",
          "name": "",
          "type": "string"
        }
      ],
      "stateMutability": "view",
      "type": "function"
    },
    {
      "inputs": [
        {
          "internalType": "address",
          "name": "from",
          "type": "address"
        },
        {
          "internalType": "address",
          "name": "to",
          "type": "address"
        },
        {
          "internalType": "uint256",
          "name": "tokenId",
          "type": "uint256"
        }
      ],
      "name": "transferFrom",
      "outputs": [],
      "stateMutability": "nonpayable",
      "type": "function"
    },
    {
      "inputs": [
        {
          "internalType": "string",
          "name": "name",
          "type": "string"
        }
      ],
      "name": "valid",
      "outputs": [
        {
          "internalType": "bool",
          "name": "",
          "type": "bool"
        }
      ],
      "stateMutability": "pure",
      "type": "function"
    },
    {
      "inputs": [],
      "name": "withdraw",
      "outputs": [],
      "stateMutability": "nonpayable",
      "type": "function"
    }
  ],
  "bytecode": "0x60806040526040518061062001604052806105f48152602001620053a26105f491396009908051906020019062000038929190620002c8565b506040518060400160405280600d81526020017f3c2f746578743e3c2f7376673e00000000000000000000000000000000000000815250600a908051906020019062000086929190620002c8565b5060405162005996380380620059968339818101604052810190620000ac919062000515565b6040518060400160405280601081526020017f476974204e616d652053657276696365000000000000000000000000000000008152506040518060400160405280600381526020017f474e530000000000000000000000000000000000000000000000000000000000815250816000908051906020019062000130929190620002c8565b50806001908051906020019062000149929190620002c8565b50505033600e60006101000a81548173ffffffffffffffffffffffffffffffffffffffff021916908373ffffffffffffffffffffffffffffffffffffffff1602179055508060089080519060200190620001a5929190620002c8565b50620001f26040518060400160405280601881526020017f2573206e616d652073657276696365206465706c6f796564000000000000000081525082620001f960201b62001c0d1760201c565b5062000663565b6200029b828260405160240162000212929190620005c3565b6040516020818303038152906040527f4b5c4277000000000000000000000000000000000000000000000000000000007bffffffffffffffffffffffffffffffffffffffffffffffffffffffff19166020820180517bffffffffffffffffffffffffffffffffffffffffffffffffffffffff83818316178352505050506200029f60201b60201c565b5050565b60008151905060006a636f6e736f6c652e6c6f679050602083016000808483855afa5050505050565b828054620002d6906200062d565b90600052602060002090601f016020900481019282620002fa576000855562000346565b82601f106200031557805160ff191683800117855562000346565b8280016001018555821562000346579182015b828111156200034557825182559160200191906001019062000328565b5b50905062000355919062000359565b5090565b5b80821115620003745760008160009055506001016200035a565b5090565b6000604051905090565b600080fd5b600080fd5b600080fd5b600080fd5b6000601f19601f8301169050919050565b7f4e487b7100000000000000000000000000000000000000000000000000000000600052604160045260246000fd5b620003e18262000396565b810181811067ffffffffffffffff82111715620004035762000402620003a7565b5b80604052505050565b60006200041862000378565b9050620004268282620003d6565b919050565b600067ffffffffffffffff821115620004495762000448620003a7565b5b620004548262000396565b9050602081019050919050565b60005b838110156200048157808201518184015260208101905062000464565b8381111562000491576000848401525b50505050565b6000620004ae620004a8846200042b565b6200040c565b905082815260208101848484011115620004cd57620004cc62000391565b5b620004da84828562000461565b509392505050565b600082601f830112620004fa57620004f96200038c565b5b81516200050c84826020860162000497565b91505092915050565b6000602082840312156200052e576200052d62000382565b5b600082015167ffffffffffffffff8111156200054f576200054e62000387565b5b6200055d84828501620004e2565b91505092915050565b600081519050919050565b600082825260208201905092915050565b60006200058f8262000566565b6200059b818562000571565b9350620005ad81856020860162000461565b620005b88162000396565b840191505092915050565b60006040820190508181036000830152620005df818562000582565b90508181036020830152620005f5818462000582565b90509392505050565b7f4e487b7100000000000000000000000000000000000000000000000000000000600052602260045260246000fd5b600060028204905060018216806200064657607f821691505b602082108114156200065d576200065c620005fe565b5b50919050565b614d2f80620006736000396000f3fe60806040526004361061019c5760003560e01c80636352211e116100ec578063b88d4fde1161008a578063c87b56dd11610064578063c87b56dd14610603578063e985e9c514610640578063fb825e5f1461067d578063fe2c6198146106a85761019c565b8063b88d4fde14610574578063bf40fac11461059d578063c1880a98146105da5761019c565b80638f32d59b116100c65780638f32d59b146104b857806395d89b41146104e35780639791c0971461050e578063a22cb4651461054b5761019c565b80636352211e1461041357806370a08231146104505780638da5cb5b1461048d5761019c565b806326449235116101595780633ffbd47f116101335780633ffbd47f1461035457806342842e0e146103705780634622ab0314610399578063541e771d146103d65761019c565b806326449235146102d55780632d551432146103125780633ccfd60b1461033d5761019c565b806301ffc9a7146101a157806306fdde03146101de578063081812fc14610209578063095ea7b31461024657806311dd88451461026f57806323b872dd146102ac575b600080fd5b3480156101ad57600080fd5b506101c860048036038101906101c391906130f2565b6106e5565b6040516101d5919061313a565b60405180910390f35b3480156101ea57600080fd5b506101f36107c7565b60405161020091906131ee565b60405180910390f35b34801561021557600080fd5b50610230600480360381019061022b9190613246565b610859565b60405161023d91906132b4565b60405180910390f35b34801561025257600080fd5b5061026d600480360381019061026891906132fb565b6108de565b005b34801561027b57600080fd5b50610296600480360381019061029191906133a0565b6109f6565b6040516102a391906131ee565b60405180910390f35b3480156102b857600080fd5b506102d360048036038101906102ce91906133ed565b610aa9565b005b3480156102e157600080fd5b506102fc60048036038101906102f79190613570565b610b09565b60405161030991906132b4565b60405180910390f35b34801561031e57600080fd5b50610327610b52565b60405161033491906131ee565b60405180910390f35b34801561034957600080fd5b50610352610be0565b005b61036e600480360381019061036991906135b9565b610ca6565b005b34801561037c57600080fd5b50610397600480360381019061039291906133ed565b61116e565b005b3480156103a557600080fd5b506103c060048036038101906103bb9190613246565b61118e565b6040516103cd91906131ee565b60405180910390f35b3480156103e257600080fd5b506103fd60048036038101906103f89190613570565b61122e565b60405161040a91906131ee565b60405180910390f35b34801561041f57600080fd5b5061043a60048036038101906104359190613246565b6112e4565b60405161044791906132b4565b60405180910390f35b34801561045c57600080fd5b506104776004803603810190610472919061363a565b611396565b6040516104849190613676565b60405180910390f35b34801561049957600080fd5b506104a261144e565b6040516104af91906136b2565b60405180910390f35b3480156104c457600080fd5b506104cd611474565b6040516104da919061313a565b60405180910390f35b3480156104ef57600080fd5b506104f86114cc565b60405161050591906131ee565b60405180910390f35b34801561051a57600080fd5b50610535600480360381019061053091906133a0565b61155e565b604051610542919061313a565b60405180910390f35b34801561055757600080fd5b50610572600480360381019061056d91906136f9565b611612565b005b34801561058057600080fd5b5061059b600480360381019061059691906137da565b611628565b005b3480156105a957600080fd5b506105c460048036038101906105bf91906133a0565b61168a565b6040516105d191906132b4565b60405180910390f35b3480156105e657600080fd5b5061060160048036038101906105fc91906135b9565b6116d5565b005b34801561060f57600080fd5b5061062a60048036038101906106259190613246565b6117b0565b60405161063791906131ee565b60405180910390f35b34801561064c57600080fd5b506106676004803603810190610662919061385d565b611902565b604051610674919061313a565b60405180910390f35b34801561068957600080fd5b50610692611996565b60405161069f91906139a9565b60405180910390f35b3480156106b457600080fd5b506106cf60048036038101906106ca91906133a0565b611b74565b6040516106dc9190613676565b60405180910390f35b60007f80ac58cd000000000000000000000000000000000000000000000000000000007bffffffffffffffffffffffffffffffffffffffffffffffffffffffff1916827bffffffffffffffffffffffffffffffffffffffffffffffffffffffff191614806107b057507f5b5e139f000000000000000000000000000000000000000000000000000000007bffffffffffffffffffffffffffffffffffffffffffffffffffffffff1916827bffffffffffffffffffffffffffffffffffffffffffffffffffffffff1916145b806107c057506107bf82611ca9565b5b9050919050565b6060600080546107d6906139fa565b80601f0160208091040260200160405190810160405280929190818152602001828054610802906139fa565b801561084f5780601f106108245761010080835404028352916020019161084f565b820191906000526020600020905b81548152906001019060200180831161083257829003601f168201915b5050505050905090565b600061086482611d13565b6108a3576040517f08c379a000000000000000000000000000000000000000000000000000000000815260040161089a90613a9e565b60405180910390fd5b6004600083815260200190815260200160002060009054906101000a900473ffffffffffffffffffffffffffffffffffffffff169050919050565b60006108e9826112e4565b90508073ffffffffffffffffffffffffffffffffffffffff168373ffffffffffffffffffffffffffffffffffffffff16141561095a576040517f08c379a000000000000000000000000000000000000000000000000000000000815260040161095190613b30565b60405180910390fd5b8073ffffffffffffffffffffffffffffffffffffffff16610979611d7f565b73ffffffffffffffffffffffffffffffffffffffff1614806109a857506109a7816109a2611d7f565b611902565b5b6109e7576040517f08c379a00000000000000000000000000000000000000000000000000000000081526004016109de90613bc2565b60405180910390fd5b6109f18383611d87565b505050565b6060600c8383604051610a0a929190613c12565b90815260200160405180910390208054610a23906139fa565b80601f0160208091040260200160405190810160405280929190818152602001828054610a4f906139fa565b8015610a9c5780601f10610a7157610100808354040283529160200191610a9c565b820191906000526020600020905b815481529060010190602001808311610a7f57829003601f168201915b5050505050905092915050565b610aba610ab4611d7f565b82611e40565b610af9576040517f08c379a0000000000000000000000000000000000000000000000000000000008152600401610af090613c9d565b60405180910390fd5b610b04838383611f1e565b505050565b600b818051602081018201805184825260208301602085012081835280955050505050506000915054906101000a900473ffffffffffffffffffffffffffffffffffffffff1681565b60088054610b5f906139fa565b80601f0160208091040260200160405190810160405280929190818152602001828054610b8b906139fa565b8015610bd85780601f10610bad57610100808354040283529160200191610bd8565b820191906000526020600020905b815481529060010190602001808311610bbb57829003601f168201915b505050505081565b610be8611474565b610bf157600080fd5b600047905060003373ffffffffffffffffffffffffffffffffffffffff1682604051610c1c90613cee565b60006040518083038185875af1925050503d8060008114610c59576040519150601f19603f3d011682016040523d82523d6000602084013e610c5e565b606091505b5050905080610ca2576040517f08c379a0000000000000000000000000000000000000000000000000000000008152600401610c9990613d4f565b60405180910390fd5b5050565b600073ffffffffffffffffffffffffffffffffffffffff16600b8585604051610cd0929190613c12565b908152602001604051809103902060009054906101000a900473ffffffffffffffffffffffffffffffffffffffff1673ffffffffffffffffffffffffffffffffffffffff1614610d4c576040517f3a81d6fc00000000000000000000000000000000000000000000000000000000815260040160405180910390fd5b610d56848461155e565b610d995783836040517f7f19f48d000000000000000000000000000000000000000000000000000000008152600401610d90929190613d9c565b60405180910390fd5b600073ffffffffffffffffffffffffffffffffffffffff16600b8585604051610dc3929190613c12565b908152602001604051809103902060009054906101000a900473ffffffffffffffffffffffffffffffffffffffff1673ffffffffffffffffffffffffffffffffffffffff1614610e1257600080fd5b6000610e1e8585611b74565b905080341015610e63576040517f08c379a0000000000000000000000000000000000000000000000000000000008152600401610e5a90613e0c565b60405180910390fd5b600085856008604051602001610e7b93929190613f0c565b60405160208183030381529060405290506000610e986007612185565b90506000610ee988888080601f016020809104026020016040519081016040528093929190818152602001838380828437600081840152601f19601f82011690508083019250505050505050612193565b90506000610ef682612348565b9050610fea604051806060016040528060318152602001614c50603191398a8a8080601f016020809104026020016040519081016040528093929190818152602001838380828437600081840152601f19601f8201169050808301925050505050505060088054610f66906139fa565b80601f0160208091040260200160405190810160405280929190818152602001828054610f92906139fa565b8015610fdf5780601f10610fb457610100808354040283529160200191610fdf565b820191906000526020600020905b815481529060010190602001808311610fc257829003601f168201915b5050505050866124a9565b600061101a8589898560405160200161100694939291906140ea565b60405160208183030381529060405261254b565b905060008160405160200161102f9190614195565b6040516020818303038152906040529050611061604051806060016040528060398152602001614c17603991396126e3565b6110a06040518060400160405280600e81526020017f46696e616c20746f6b656e55524900000000000000000000000000000000000081525082611c0d565b6110c1604051806060016040528060398152602001614c81603991396126e3565b6110cb338661277c565b6110d5858261279a565b33600b8c8c6040516110e8929190613c12565b908152602001604051809103902060006101000a81548173ffffffffffffffffffffffffffffffffffffffff021916908373ffffffffffffffffffffffffffffffffffffffff1602179055508a8a600d60008881526020019081526020016000209190611156929190612f5d565b50611161600761280e565b5050505050505050505050565b61118983838360405180602001604052806000815250611628565b505050565b600d60205280600052604060002060009150905080546111ad906139fa565b80601f01602080910402602001604051908101604052809291908181526020018280546111d9906139fa565b80156112265780601f106111fb57610100808354040283529160200191611226565b820191906000526020600020905b81548152906001019060200180831161120957829003601f168201915b505050505081565b600c818051602081018201805184825260208301602085012081835280955050505050506000915090508054611263906139fa565b80601f016020809104026020016040519081016040528092919081815260200182805461128f906139fa565b80156112dc5780601f106112b1576101008083540402835291602001916112dc565b820191906000526020600020905b8154815290600101906020018083116112bf57829003601f168201915b505050505081565b6000806002600084815260200190815260200160002060009054906101000a900473ffffffffffffffffffffffffffffffffffffffff169050600073ffffffffffffffffffffffffffffffffffffffff168173ffffffffffffffffffffffffffffffffffffffff16141561138d576040517f08c379a000000000000000000000000000000000000000000000000000000000815260040161138490614229565b60405180910390fd5b80915050919050565b60008073ffffffffffffffffffffffffffffffffffffffff168273ffffffffffffffffffffffffffffffffffffffff161415611407576040517f08c379a00000000000000000000000000000000000000000000000000000000081526004016113fe906142bb565b60405180910390fd5b600360008373ffffffffffffffffffffffffffffffffffffffff1673ffffffffffffffffffffffffffffffffffffffff168152602001908152602001600020549050919050565b600e60009054906101000a900473ffffffffffffffffffffffffffffffffffffffff1681565b6000600e60009054906101000a900473ffffffffffffffffffffffffffffffffffffffff1673ffffffffffffffffffffffffffffffffffffffff163373ffffffffffffffffffffffffffffffffffffffff1614905090565b6060600180546114db906139fa565b80601f0160208091040260200160405190810160405280929190818152602001828054611507906139fa565b80156115545780601f1061152957610100808354040283529160200191611554565b820191906000526020600020905b81548152906001019060200180831161153757829003601f168201915b5050505050905090565b600060036115af84848080601f016020809104026020016040519081016040528093929190818152602001838380828437600081840152601f19601f82011690508083019250505050505050612193565b1015801561160a5750600f61160784848080601f016020809104026020016040519081016040528093929190818152602001838380828437600081840152601f19601f82011690508083019250505050505050612193565b11155b905092915050565b61162461161d611d7f565b8383612824565b5050565b611639611633611d7f565b83611e40565b611678576040517f08c379a000000000000000000000000000000000000000000000000000000000815260040161166f90613c9d565b60405180910390fd5b61168484848484612991565b50505050565b6000600b838360405161169e929190613c12565b908152602001604051809103902060009054906101000a900473ffffffffffffffffffffffffffffffffffffffff16905092915050565b600b84846040516116e7929190613c12565b908152602001604051809103902060009054906101000a900473ffffffffffffffffffffffffffffffffffffffff1673ffffffffffffffffffffffffffffffffffffffff163373ffffffffffffffffffffffffffffffffffffffff161461177a576040517f82b4290000000000000000000000000000000000000000000000000000000000815260040160405180910390fd5b8181600c868660405161178e929190613c12565b908152602001604051809103902091906117a9929190612f5d565b5050505050565b60606117bb82611d13565b6117fa576040517f08c379a00000000000000000000000000000000000000000000000000000000081526004016117f19061434d565b60405180910390fd5b600060066000848152602001908152602001600020805461181a906139fa565b80601f0160208091040260200160405190810160405280929190818152602001828054611846906139fa565b80156118935780601f1061186857610100808354040283529160200191611893565b820191906000526020600020905b81548152906001019060200180831161187657829003601f168201915b5050505050905060006118a46129ed565b90506000815114156118ba5781925050506118fd565b6000825111156118ef5780826040516020016118d792919061436d565b604051602081830303815290604052925050506118fd565b6118f884612a04565b925050505b919050565b6000600560008473ffffffffffffffffffffffffffffffffffffffff1673ffffffffffffffffffffffffffffffffffffffff16815260200190815260200160002060008373ffffffffffffffffffffffffffffffffffffffff1673ffffffffffffffffffffffffffffffffffffffff16815260200190815260200160002060009054906101000a900460ff16905092915050565b60606119d66040518060400160405280601f81526020017f47657474696e6720616c6c206e616d65732066726f6d20636f6e7472616374008152506126e3565b60006119e26007612185565b67ffffffffffffffff8111156119fb576119fa613445565b5b604051908082528060200260200182016040528015611a2e57816020015b6060815260200190600190039081611a195790505b50905060005b611a3e6007612185565b811015611b6c57600d60008281526020019081526020016000208054611a63906139fa565b80601f0160208091040260200160405190810160405280929190818152602001828054611a8f906139fa565b8015611adc5780601f10611ab157610100808354040283529160200191611adc565b820191906000526020600020905b815481529060010190602001808311611abf57829003601f168201915b5050505050828281518110611af457611af3614391565b5b6020026020010181905250611b596040518060400160405280601781526020017f4e616d6520666f7220746f6b656e20256420697320257300000000000000000081525082848481518110611b4c57611b4b614391565b5b6020026020010151612aab565b8080611b64906143ef565b915050611a34565b508091505090565b600080611bc484848080601f016020809104026020016040519081016040528093929190818152602001838380828437600081840152601f19601f82011690508083019250505050505050612193565b905060008111611bd357600080fd5b6003811415611be9576302faf080915050611c07565b6004811415611bff576301c9c380915050611c07565b629896809150505b92915050565b611ca58282604051602401611c23929190614438565b6040516020818303038152906040527f4b5c4277000000000000000000000000000000000000000000000000000000007bffffffffffffffffffffffffffffffffffffffffffffffffffffffff19166020820180517bffffffffffffffffffffffffffffffffffffffffffffffffffffffff8381831617835250505050612b4a565b5050565b60007f01ffc9a7000000000000000000000000000000000000000000000000000000007bffffffffffffffffffffffffffffffffffffffffffffffffffffffff1916827bffffffffffffffffffffffffffffffffffffffffffffffffffffffff1916149050919050565b60008073ffffffffffffffffffffffffffffffffffffffff166002600084815260200190815260200160002060009054906101000a900473ffffffffffffffffffffffffffffffffffffffff1673ffffffffffffffffffffffffffffffffffffffff1614159050919050565b600033905090565b816004600083815260200190815260200160002060006101000a81548173ffffffffffffffffffffffffffffffffffffffff021916908373ffffffffffffffffffffffffffffffffffffffff160217905550808273ffffffffffffffffffffffffffffffffffffffff16611dfa836112e4565b73ffffffffffffffffffffffffffffffffffffffff167f8c5be1e5ebec7d5bd14f71427d1e84f3dd0314c0f7b2291e5b200ac8c7c3b92560405160405180910390a45050565b6000611e4b82611d13565b611e8a576040517f08c379a0000000000000000000000000000000000000000000000000000000008152600401611e81906144e1565b60405180910390fd5b6000611e95836112e4565b90508073ffffffffffffffffffffffffffffffffffffffff168473ffffffffffffffffffffffffffffffffffffffff161480611f0457508373ffffffffffffffffffffffffffffffffffffffff16611eec84610859565b73ffffffffffffffffffffffffffffffffffffffff16145b80611f155750611f148185611902565b5b91505092915050565b8273ffffffffffffffffffffffffffffffffffffffff16611f3e826112e4565b73ffffffffffffffffffffffffffffffffffffffff1614611f94576040517f08c379a0000000000000000000000000000000000000000000000000000000008152600401611f8b90614573565b60405180910390fd5b600073ffffffffffffffffffffffffffffffffffffffff168273ffffffffffffffffffffffffffffffffffffffff161415612004576040517f08c379a0000000000000000000000000000000000000000000000000000000008152600401611ffb90614605565b60405180910390fd5b61200f838383612b73565b61201a600082611d87565b6001600360008573ffffffffffffffffffffffffffffffffffffffff1673ffffffffffffffffffffffffffffffffffffffff168152602001908152602001600020600082825461206a9190614625565b925050819055506001600360008473ffffffffffffffffffffffffffffffffffffffff1673ffffffffffffffffffffffffffffffffffffffff16815260200190815260200160002060008282546120c19190614659565b92505081905550816002600083815260200190815260200160002060006101000a81548173ffffffffffffffffffffffffffffffffffffffff021916908373ffffffffffffffffffffffffffffffffffffffff160217905550808273ffffffffffffffffffffffffffffffffffffffff168473ffffffffffffffffffffffffffffffffffffffff167fddf252ad1be2c89b69c2b068fc378daa952ba7f163c4a11628f55a4df523b3ef60405160405180910390a4612180838383612b78565b505050565b600081600001549050919050565b60008060008084519050600092505b8082101561233d5760008583815181106121bf576121be614391565b5b602001015160f81c60f81b9050608060f81b817effffffffffffffffffffffffffffffffffffffffffffffffffffffffffffff1916101561220e576001836122079190614659565b9250612329565b60e060f81b817effffffffffffffffffffffffffffffffffffffffffffffffffffffffffffff19161015612250576002836122499190614659565b9250612328565b60f060f81b817effffffffffffffffffffffffffffffffffffffffffffffffffffffffffffff191610156122925760038361228b9190614659565b9250612327565b60f8801b817effffffffffffffffffffffffffffffffffffffffffffffffffffffffffffff191610156122d3576004836122cc9190614659565b9250612326565b60fc60f81b817effffffffffffffffffffffffffffffffffffffffffffffffffffffffffffff191610156123155760058361230e9190614659565b9250612325565b6006836123229190614659565b92505b5b5b5b5b508280612335906143ef565b9350506121a2565b829350505050919050565b60606000821415612390576040518060400160405280600181526020017f300000000000000000000000000000000000000000000000000000000000000081525090506124a4565b600082905060005b600082146123c25780806123ab906143ef565b915050600a826123bb91906146de565b9150612398565b60008167ffffffffffffffff8111156123de576123dd613445565b5b6040519080825280601f01601f1916602001820160405280156124105781602001600182028036833780820191505090505b5090505b6000851461249d576001826124299190614625565b9150600a85612438919061470f565b60306124449190614659565b60f81b81838151811061245a57612459614391565b5b60200101907effffffffffffffffffffffffffffffffffffffffffffffffffffffffffffff1916908160001a905350600a8561249691906146de565b9450612414565b8093505050505b919050565b612545848484846040516024016124c39493929190614740565b6040516020818303038152906040527f9fd009f5000000000000000000000000000000000000000000000000000000007bffffffffffffffffffffffffffffffffffffffffffffffffffffffff19166020820180517bffffffffffffffffffffffffffffffffffffffffffffffffffffffff8381831617835250505050612b4a565b50505050565b6060600082519050600081141561257457604051806020016040528060008152509150506126de565b600060036002836125859190614659565b61258f91906146de565b600461259b919061479a565b905060006020826125ac9190614659565b67ffffffffffffffff8111156125c5576125c4613445565b5b6040519080825280601f01601f1916602001820160405280156125f75781602001600182028036833780820191505090505b5090506000604051806060016040528060408152602001614cba604091399050600181016020830160005b8681101561269b5760038101905062ffffff818a015116603f8160121c168401518060081b905060ff603f83600c1c1686015116810190508060081b905060ff603f8360061c1686015116810190508060081b905060ff603f831686015116810190508060e01b90508084526004840193505050612622565b5060038606600181146126b557600281146126c5576126d0565b613d3d60f01b60028303526126d0565b603d60f81b60018303525b508484525050819450505050505b919050565b612779816040516024016126f791906131ee565b6040516020818303038152906040527f41304fac000000000000000000000000000000000000000000000000000000007bffffffffffffffffffffffffffffffffffffffffffffffffffffffff19166020820180517bffffffffffffffffffffffffffffffffffffffffffffffffffffffff8381831617835250505050612b4a565b50565b612796828260405180602001604052806000815250612b7d565b5050565b6127a382611d13565b6127e2576040517f08c379a00000000000000000000000000000000000000000000000000000000081526004016127d990614866565b60405180910390fd5b80600660008481526020019081526020016000209080519060200190612809929190612fe3565b505050565b6001816000016000828254019250508190555050565b8173ffffffffffffffffffffffffffffffffffffffff168373ffffffffffffffffffffffffffffffffffffffff161415612893576040517f08c379a000000000000000000000000000000000000000000000000000000000815260040161288a906148d2565b60405180910390fd5b80600560008573ffffffffffffffffffffffffffffffffffffffff1673ffffffffffffffffffffffffffffffffffffffff16815260200190815260200160002060008473ffffffffffffffffffffffffffffffffffffffff1673ffffffffffffffffffffffffffffffffffffffff16815260200190815260200160002060006101000a81548160ff0219169083151502179055508173ffffffffffffffffffffffffffffffffffffffff168373ffffffffffffffffffffffffffffffffffffffff167f17307eab39ab6107e8899845ad3d59bd9653f200f220920489ca2b5937696c3183604051612984919061313a565b60405180910390a3505050565b61299c848484611f1e565b6129a884848484612bd8565b6129e7576040517f08c379a00000000000000000000000000000000000000000000000000000000081526004016129de90614964565b60405180910390fd5b50505050565b606060405180602001604052806000815250905090565b6060612a0f82611d13565b612a4e576040517f08c379a0000000000000000000000000000000000000000000000000000000008152600401612a45906149f6565b60405180910390fd5b6000612a586129ed565b90506000815111612a785760405180602001604052806000815250612aa3565b80612a8284612348565b604051602001612a9392919061436d565b6040516020818303038152906040525b915050919050565b612b45838383604051602401612ac393929190614a16565b6040516020818303038152906040527fa3f5c739000000000000000000000000000000000000000000000000000000007bffffffffffffffffffffffffffffffffffffffffffffffffffffffff19166020820180517bffffffffffffffffffffffffffffffffffffffffffffffffffffffff8381831617835250505050612b4a565b505050565b60008151905060006a636f6e736f6c652e6c6f679050602083016000808483855afa5050505050565b505050565b505050565b612b878383612d60565b612b946000848484612bd8565b612bd3576040517f08c379a0000000000000000000000000000000000000000000000000000000008152600401612bca90614964565b60405180910390fd5b505050565b6000612bf98473ffffffffffffffffffffffffffffffffffffffff16612f3a565b15612d53578373ffffffffffffffffffffffffffffffffffffffff1663150b7a02612c22611d7f565b8786866040518563ffffffff1660e01b8152600401612c449493929190614ab0565b6020604051808303816000875af1925050508015612c8057506040513d601f19601f82011682018060405250810190612c7d9190614b11565b60015b612d03573d8060008114612cb0576040519150601f19603f3d011682016040523d82523d6000602084013e612cb5565b606091505b50600081511415612cfb576040517f08c379a0000000000000000000000000000000000000000000000000000000008152600401612cf290614964565b60405180910390fd5b805181602001fd5b63150b7a0260e01b7bffffffffffffffffffffffffffffffffffffffffffffffffffffffff1916817bffffffffffffffffffffffffffffffffffffffffffffffffffffffff191614915050612d58565b600190505b949350505050565b600073ffffffffffffffffffffffffffffffffffffffff168273ffffffffffffffffffffffffffffffffffffffff161415612dd0576040517f08c379a0000000000000000000000000000000000000000000000000000000008152600401612dc790614b8a565b60405180910390fd5b612dd981611d13565b15612e19576040517f08c379a0000000000000000000000000000000000000000000000000000000008152600401612e1090614bf6565b60405180910390fd5b612e2560008383612b73565b6001600360008473ffffffffffffffffffffffffffffffffffffffff1673ffffffffffffffffffffffffffffffffffffffff1681526020019081526020016000206000828254612e759190614659565b92505081905550816002600083815260200190815260200160002060006101000a81548173ffffffffffffffffffffffffffffffffffffffff021916908373ffffffffffffffffffffffffffffffffffffffff160217905550808273ffffffffffffffffffffffffffffffffffffffff16600073ffffffffffffffffffffffffffffffffffffffff167fddf252ad1be2c89b69c2b068fc378daa952ba7f163c4a11628f55a4df523b3ef60405160405180910390a4612f3660008383612b78565b5050565b6000808273ffffffffffffffffffffffffffffffffffffffff163b119050919050565b828054612f69906139fa565b90600052602060002090601f016020900481019282612f8b5760008555612fd2565b82601f10612fa457803560ff1916838001178555612fd2565b82800160010185558215612fd2579182015b82811115612fd1578235825591602001919060010190612fb6565b5b509050612fdf9190613069565b5090565b828054612fef906139fa565b90600052602060002090601f0160209004810192826130115760008555613058565b82601f1061302a57805160ff1916838001178555613058565b82800160010185558215613058579182015b8281111561305757825182559160200191906001019061303c565b5b5090506130659190613069565b5090565b5b8082111561308257600081600090555060010161306a565b5090565b6000604051905090565b600080fd5b600080fd5b60007fffffffff0000000000000000000000000000000000000000000000000000000082169050919050565b6130cf8161309a565b81146130da57600080fd5b50565b6000813590506130ec816130c6565b92915050565b60006020828403121561310857613107613090565b5b6000613116848285016130dd565b91505092915050565b60008115159050919050565b6131348161311f565b82525050565b600060208201905061314f600083018461312b565b92915050565b600081519050919050565b600082825260208201905092915050565b60005b8381101561318f578082015181840152602081019050613174565b8381111561319e576000848401525b50505050565b6000601f19601f8301169050919050565b60006131c082613155565b6131ca8185613160565b93506131da818560208601613171565b6131e3816131a4565b840191505092915050565b6000602082019050818103600083015261320881846131b5565b905092915050565b6000819050919050565b61322381613210565b811461322e57600080fd5b50565b6000813590506132408161321a565b92915050565b60006020828403121561325c5761325b613090565b5b600061326a84828501613231565b91505092915050565b600073ffffffffffffffffffffffffffffffffffffffff82169050919050565b600061329e82613273565b9050919050565b6132ae81613293565b82525050565b60006020820190506132c960008301846132a5565b92915050565b6132d881613293565b81146132e357600080fd5b50565b6000813590506132f5816132cf565b92915050565b6000806040838503121561331257613311613090565b5b6000613320858286016132e6565b925050602061333185828601613231565b9150509250929050565b600080fd5b600080fd5b600080fd5b60008083601f8401126133605761335f61333b565b5b8235905067ffffffffffffffff81111561337d5761337c613340565b5b60208301915083600182028301111561339957613398613345565b5b9250929050565b600080602083850312156133b7576133b6613090565b5b600083013567ffffffffffffffff8111156133d5576133d4613095565b5b6133e18582860161334a565b92509250509250929050565b60008060006060848603121561340657613405613090565b5b6000613414868287016132e6565b9350506020613425868287016132e6565b925050604061343686828701613231565b9150509250925092565b600080fd5b7f4e487b7100000000000000000000000000000000000000000000000000000000600052604160045260246000fd5b61347d826131a4565b810181811067ffffffffffffffff8211171561349c5761349b613445565b5b80604052505050565b60006134af613086565b90506134bb8282613474565b919050565b600067ffffffffffffffff8211156134db576134da613445565b5b6134e4826131a4565b9050602081019050919050565b82818337600083830152505050565b600061351361350e846134c0565b6134a5565b90508281526020810184848401111561352f5761352e613440565b5b61353a8482856134f1565b509392505050565b600082601f8301126135575761355661333b565b5b8135613567848260208601613500565b91505092915050565b60006020828403121561358657613585613090565b5b600082013567ffffffffffffffff8111156135a4576135a3613095565b5b6135b084828501613542565b91505092915050565b600080600080604085870312156135d3576135d2613090565b5b600085013567ffffffffffffffff8111156135f1576135f0613095565b5b6135fd8782880161334a565b9450945050602085013567ffffffffffffffff8111156136205761361f613095565b5b61362c8782880161334a565b925092505092959194509250565b6000602082840312156136505761364f613090565b5b600061365e848285016132e6565b91505092915050565b61367081613210565b82525050565b600060208201905061368b6000830184613667565b92915050565b600061369c82613273565b9050919050565b6136ac81613691565b82525050565b60006020820190506136c760008301846136a3565b92915050565b6136d68161311f565b81146136e157600080fd5b50565b6000813590506136f3816136cd565b92915050565b600080604083850312156137105761370f613090565b5b600061371e858286016132e6565b925050602061372f858286016136e4565b9150509250929050565b600067ffffffffffffffff82111561375457613753613445565b5b61375d826131a4565b9050602081019050919050565b600061377d61377884613739565b6134a5565b90508281526020810184848401111561379957613798613440565b5b6137a48482856134f1565b509392505050565b600082601f8301126137c1576137c061333b565b5b81356137d184826020860161376a565b91505092915050565b600080600080608085870312156137f4576137f3613090565b5b6000613802878288016132e6565b9450506020613813878288016132e6565b935050604061382487828801613231565b925050606085013567ffffffffffffffff81111561384557613844613095565b5b613851878288016137ac565b91505092959194509250565b6000806040838503121561387457613873613090565b5b6000613882858286016132e6565b9250506020613893858286016132e6565b9150509250929050565b600081519050919050565b600082825260208201905092915050565b6000819050602082019050919050565b600082825260208201905092915050565b60006138e582613155565b6138ef81856138c9565b93506138ff818560208601613171565b613908816131a4565b840191505092915050565b600061391f83836138da565b905092915050565b6000602082019050919050565b600061393f8261389d565b61394981856138a8565b93508360208202850161395b856138b9565b8060005b8581101561399757848403895281516139788582613913565b945061398383613927565b925060208a0199505060018101905061395f565b50829750879550505050505092915050565b600060208201905081810360008301526139c38184613934565b905092915050565b7f4e487b7100000000000000000000000000000000000000000000000000000000600052602260045260246000fd5b60006002820490506001821680613a1257607f821691505b60208210811415613a2657613a256139cb565b5b50919050565b7f4552433732313a20617070726f76656420717565727920666f72206e6f6e657860008201527f697374656e7420746f6b656e0000000000000000000000000000000000000000602082015250565b6000613a88602c83613160565b9150613a9382613a2c565b604082019050919050565b60006020820190508181036000830152613ab781613a7b565b9050919050565b7f4552433732313a20617070726f76616c20746f2063757272656e74206f776e6560008201527f7200000000000000000000000000000000000000000000000000000000000000602082015250565b6000613b1a602183613160565b9150613b2582613abe565b604082019050919050565b60006020820190508181036000830152613b4981613b0d565b9050919050565b7f4552433732313a20617070726f76652063616c6c6572206973206e6f74206f7760008201527f6e6572206e6f7220617070726f76656420666f7220616c6c0000000000000000602082015250565b6000613bac603883613160565b9150613bb782613b50565b604082019050919050565b60006020820190508181036000830152613bdb81613b9f565b9050919050565b600081905092915050565b6000613bf98385613be2565b9350613c068385846134f1565b82840190509392505050565b6000613c1f828486613bed565b91508190509392505050565b7f4552433732313a207472616e736665722063616c6c6572206973206e6f74206f60008201527f776e6572206e6f7220617070726f766564000000000000000000000000000000602082015250565b6000613c87603183613160565b9150613c9282613c2b565b604082019050919050565b60006020820190508181036000830152613cb681613c7a565b9050919050565b600081905092915050565b50565b6000613cd8600083613cbd565b9150613ce382613cc8565b600082019050919050565b6000613cf982613ccb565b9150819050919050565b7f4661696c656420746f207769746864726177204d617469630000000000000000600082015250565b6000613d39601883613160565b9150613d4482613d03565b602082019050919050565b60006020820190508181036000830152613d6881613d2c565b9050919050565b6000613d7b8385613160565b9350613d888385846134f1565b613d91836131a4565b840190509392505050565b60006020820190508181036000830152613db7818486613d6f565b90509392505050565b7f4e6f7420656e6f756768204d6174696320706169640000000000000000000000600082015250565b6000613df6601583613160565b9150613e0182613dc0565b602082019050919050565b60006020820190508181036000830152613e2581613de9565b9050919050565b7f2e00000000000000000000000000000000000000000000000000000000000000600082015250565b6000613e62600183613be2565b9150613e6d82613e2c565b600182019050919050565b60008190508160005260206000209050919050565b60008154613e9a816139fa565b613ea48186613be2565b94506001821660008114613ebf5760018114613ed057613f03565b60ff19831686528186019350613f03565b613ed985613e78565b60005b83811015613efb57815481890152600182019150602081019050613edc565b838801955050505b50505092915050565b6000613f19828587613bed565b9150613f2482613e55565b9150613f308284613e8d565b9150819050949350505050565b7f7b226e616d65223a202200000000000000000000000000000000000000000000600082015250565b6000613f73600a83613be2565b9150613f7e82613f3d565b600a82019050919050565b6000613f9482613155565b613f9e8185613be2565b9350613fae818560208601613171565b80840191505092915050565b7f222c20226465736372697074696f6e223a20224120646f6d61696e206f6e207460008201527f686520476974206e616d652073657276696365222c2022696d616765223a202260208201527f697066733a2f2f00000000000000000000000000000000000000000000000000604082015250565b600061403c604783613be2565b915061404782613fba565b604782019050919050565b7f222c226c656e677468223a220000000000000000000000000000000000000000600082015250565b6000614088600c83613be2565b915061409382614052565b600c82019050919050565b7f227d000000000000000000000000000000000000000000000000000000000000600082015250565b60006140d4600283613be2565b91506140df8261409e565b600282019050919050565b60006140f582613f66565b91506141018287613f89565b915061410c8261402f565b9150614119828587613bed565b91506141248261407b565b91506141308284613f89565b915061413b826140c7565b915081905095945050505050565b7f646174613a6170706c69636174696f6e2f6a736f6e3b6261736536342c000000600082015250565b600061417f601d83613be2565b915061418a82614149565b601d82019050919050565b60006141a082614172565b91506141ac8284613f89565b915081905092915050565b7f4552433732313a206f776e657220717565727920666f72206e6f6e657869737460008201527f656e7420746f6b656e0000000000000000000000000000000000000000000000602082015250565b6000614213602983613160565b915061421e826141b7565b604082019050919050565b6000602082019050818103600083015261424281614206565b9050919050565b7f4552433732313a2062616c616e636520717565727920666f7220746865207a6560008201527f726f206164647265737300000000000000000000000000000000000000000000602082015250565b60006142a5602a83613160565b91506142b082614249565b604082019050919050565b600060208201905081810360008301526142d481614298565b9050919050565b7f45524337323155524953746f726167653a2055524920717565727920666f722060008201527f6e6f6e6578697374656e7420746f6b656e000000000000000000000000000000602082015250565b6000614337603183613160565b9150614342826142db565b604082019050919050565b600060208201905081810360008301526143668161432a565b9050919050565b60006143798285613f89565b91506143858284613f89565b91508190509392505050565b7f4e487b7100000000000000000000000000000000000000000000000000000000600052603260045260246000fd5b7f4e487b7100000000000000000000000000000000000000000000000000000000600052601160045260246000fd5b60006143fa82613210565b91507fffffffffffffffffffffffffffffffffffffffffffffffffffffffffffffffff82141561442d5761442c6143c0565b5b600182019050919050565b6000604082019050818103600083015261445281856131b5565b9050818103602083015261446681846131b5565b90509392505050565b7f4552433732313a206f70657261746f7220717565727920666f72206e6f6e657860008201527f697374656e7420746f6b656e0000000000000000000000000000000000000000602082015250565b60006144cb602c83613160565b91506144d68261446f565b604082019050919050565b600060208201905081810360008301526144fa816144be565b9050919050565b7f4552433732313a207472616e736665722066726f6d20696e636f72726563742060008201527f6f776e6572000000000000000000000000000000000000000000000000000000602082015250565b600061455d602583613160565b915061456882614501565b604082019050919050565b6000602082019050818103600083015261458c81614550565b9050919050565b7f4552433732313a207472616e7366657220746f20746865207a65726f2061646460008201527f7265737300000000000000000000000000000000000000000000000000000000602082015250565b60006145ef602483613160565b91506145fa82614593565b604082019050919050565b6000602082019050818103600083015261461e816145e2565b9050919050565b600061463082613210565b915061463b83613210565b92508282101561464e5761464d6143c0565b5b828203905092915050565b600061466482613210565b915061466f83613210565b9250827fffffffffffffffffffffffffffffffffffffffffffffffffffffffffffffffff038211156146a4576146a36143c0565b5b828201905092915050565b7f4e487b7100000000000000000000000000000000000000000000000000000000600052601260045260246000fd5b60006146e982613210565b91506146f483613210565b925082614704576147036146af565b5b828204905092915050565b600061471a82613210565b915061472583613210565b925082614735576147346146af565b5b828206905092915050565b6000608082019050818103600083015261475a81876131b5565b9050818103602083015261476e81866131b5565b9050818103604083015261478281856131b5565b90506147916060830184613667565b95945050505050565b60006147a582613210565b91506147b083613210565b9250817fffffffffffffffffffffffffffffffffffffffffffffffffffffffffffffffff04831182151516156147e9576147e86143c0565b5b828202905092915050565b7f45524337323155524953746f726167653a2055524920736574206f66206e6f6e60008201527f6578697374656e7420746f6b656e000000000000000000000000000000000000602082015250565b6000614850602e83613160565b915061485b826147f4565b604082019050919050565b6000602082019050818103600083015261487f81614843565b9050919050565b7f4552433732313a20617070726f766520746f2063616c6c657200000000000000600082015250565b60006148bc601983613160565b91506148c782614886565b602082019050919050565b600060208201905081810360008301526148eb816148af565b9050919050565b7f4552433732313a207472616e7366657220746f206e6f6e20455243373231526560008201527f63656976657220696d706c656d656e7465720000000000000000000000000000602082015250565b600061494e603283613160565b9150614959826148f2565b604082019050919050565b6000602082019050818103600083015261497d81614941565b9050919050565b7f4552433732314d657461646174613a2055524920717565727920666f72206e6f60008201527f6e6578697374656e7420746f6b656e0000000000000000000000000000000000602082015250565b60006149e0602f83613160565b91506149eb82614984565b604082019050919050565b60006020820190508181036000830152614a0f816149d3565b9050919050565b60006060820190508181036000830152614a3081866131b5565b9050614a3f6020830185613667565b8181036040830152614a5181846131b5565b9050949350505050565b600081519050919050565b600082825260208201905092915050565b6000614a8282614a5b565b614a8c8185614a66565b9350614a9c818560208601613171565b614aa5816131a4565b840191505092915050565b6000608082019050614ac560008301876132a5565b614ad260208301866132a5565b614adf6040830185613667565b8181036060830152614af18184614a77565b905095945050505050565b600081519050614b0b816130c6565b92915050565b600060208284031215614b2757614b26613090565b5b6000614b3584828501614afc565b91505092915050565b7f4552433732313a206d696e7420746f20746865207a65726f2061646472657373600082015250565b6000614b74602083613160565b9150614b7f82614b3e565b602082019050919050565b60006020820190508181036000830152614ba381614b67565b9050919050565b7f4552433732313a20746f6b656e20616c7265616479206d696e74656400000000600082015250565b6000614be0601c83613160565b9150614beb82614baa565b602082019050919050565b60006020820190508181036000830152614c0f81614bd3565b905091905056fe0a2d2d2d2d2d2d2d2d2d2d2d2d2d2d2d2d2d2d2d2d2d2d2d2d2d2d2d2d2d2d2d2d2d2d2d2d2d2d2d2d2d2d2d2d2d2d2d2d2d2d2d2d2d2d2d2d5265676973746572696e672025732e2573206f6e2074686520636f6e7472616374207769746820746f6b656e49442025642d2d2d2d2d2d2d2d2d2d2d2d2d2d2d2d2d2d2d2d2d2d2d2d2d2d2d2d2d2d2d2d2d2d2d2d2d2d2d2d2d2d2d2d2d2d2d2d2d2d2d2d2d2d2d2d0a4142434445464748494a4b4c4d4e4f505152535455565758595a6162636465666768696a6b6c6d6e6f707172737475767778797a303132333435363738392b2fa264697066735822122019af423562527524555f36c484d5a9044af7c35ba02b8da240e0b7ac18582a7d64736f6c634300080a00333c73766720786d6c6e733d22687474703a2f2f7777772e77332e6f72672f323030302f737667222077696474683d2232373022206865696768743d22323730222066696c6c3d226e6f6e65223e3c706174682066696c6c3d2275726c282361292220643d224d302030683237307632373048307a222f3e3c646566733e3c66696c7465722069643d22622220636f6c6f722d696e746572706f6c6174696f6e2d66696c746572733d2273524742222066696c746572556e6974733d227573657253706163654f6e55736522206865696768743d22323730222077696474683d22323730223e3c666544726f70536861646f772064783d2230222064793d22312220737464446576696174696f6e3d22322220666c6f6f642d6f7061636974793d222e323235222077696474683d223230302522206865696768743d2232303025222f3e3c2f66696c7465723e3c2f646566733e3c7061746820643d224d36302e352031384333392e3739342031382032332033342e37392032332035352e3563302031362e3536392031302e3734342033302e3632352032352e3634372033352e35383420312e3837322e33343720322e3437382d2e38313520322e3437382d312e3830335638322e33632d31302e34333120322e3236392d31322e3630332d342e3432352d31322e3630332d342e3432352d312e3730362d342e3333342d342e3136362d352e3438372d342e3136362d352e3438372d332e3430332d322e3332392e32362d322e3237392e32362d322e32373920332e3736352e32363320352e37343620332e38363620352e37343620332e38363620332e33343420352e37333120382e37373220342e3037352031302e39313320332e3131362e3333342d322e34323220312e3330362d342e30373820322e3338312d352e3031332d382e3332382d2e3935332d31372e3038342d342e3136392d31372e3038342d31382e35333420302d342e30393720312e3436352d372e343420332e3836322d31302e3036362d2e3338372d2e3934372d312e3637312d342e3736322e3336362d392e3932352030203020332e31352d312e3030362031302e33313620332e38343420322e39392d2e38333120362e3139372d312e32343720392e3338342d312e32363320332e3138382e30313620362e3339372e34333220392e33393420312e32363320372e31362d342e38352031302e3330332d332e3834342031302e3330332d332e38343420322e303420352e3136362e37353620382e3938312e33363920392e39323520322e34303620322e36323520332e38353920352e39373220332e3835392031302e30363620302031342e3430332d382e3737322031372e3537352d31372e3132322031382e35303320312e33343420312e31363220322e35373220332e34343420322e35373220362e3934347631302e32396330202e3939372e3620322e31363920322e35303320312e384338372e3236382038362e3131362039382037322e3036322039382035352e352039382033342e37392038312e32312031382036302e352031385a222066696c6c3d2223666666222f3e3c646566733e3c6c696e6561724772616469656e742069643d2261222078313d2230222079313d2230222078323d22323730222079323d2232373022206772616469656e74556e6974733d227573657253706163654f6e557365223e3c73746f702073746f702d636f6c6f723d2223303033314145222f3e3c73746f70206f66667365743d2231222073746f702d636f6c6f723d2223453430433942222073746f702d6f7061636974793d222e3939222f3e3c2f6c696e6561724772616469656e743e3c2f646566733e3c7465787420783d2233322e352220793d223233312220666f6e742d73697a653d223237222066696c6c3d2223666666222066696c7465723d2275726c282362292220666f6e742d66616d696c793d22506c7573204a616b617274612053616e732c44656a6156752053616e732c4e6f746f20436f6c6f7220456d6f6a692c4170706c6520436f6c6f7220456d6f6a692c73616e732d73657269662220666f6e742d7765696768743d22626f6c64223e",
  "linkReferences": {},
  "deployedLinkReferences": {}
}